:100000000C943F000C9400000C9400000C94000031
:100010000C9400000C9400000C9400000C94000060
:100020000C9400000C9400000C9400000C94000050
:100030000C9400000C9400000C9400000C94000040
:100040000C9400000C9400000C9400000C94000030
:100050000C9400001027E80364000A00010000105F
:1000600000011000010067616C6469203F00256396
:10007000006F7300646F6E65006F73640000F89426
:10008000EE27ECBBF1E0FBBFEBBFE5BF8DE0A2E0EC
:10009000BB27ED938A95E9F780E098E0A0E6ED9321
:1000A0000197E9F7EFE5EDBFE8E0EEBFC0E6D2E08B
:1000B0000C945A0011E000E0E0E0EBB9E8E9EAB99D
:1000C000E6E8E0BDE0E0E0BDE3E3E9B9E6E6F0E064
:1000D0000E9412020F5FA9F41F5F0E941902E12F14
:1000E0000E941E02E1E7F0E00E9412020E94190243
:1000F000E02F0E941E021A3021F4E4E7F0E00E9493
:1001000012020E941902E02F0E941E02E9E7F0E0AD
:100110000E941202FFCFFFCFAA935D9BFECFE88122
:10012000ECB921960895BA93AA93AA81F5DFA88124
:10013000B981ED91FD913196FE93EE93239608954A
:10014000BA93AA9326970E94620210E0AC85BD85FF
:10015000E0E0F0E0ED93FC93EA89FB893196EA8BCD
:10016000FB8B3197E4912E2FE03009F415C1E12F7C
:10017000E03039F4253211F411E002C00E94280267
:100180000AC1E130A9F4253219F40E94280202C103
:1001900012E040E000E02D3211F401E0FCC02B320F
:1001A00011F44BE2F8C0203211F440E2F4C002C076
:1001B000E23039F450E013E0203311F40068EBC072
:1001C00003C0E33009F0E7C0203310F02A3308F011
:1001D00007C0AAE05A9F502DE22FE0535E0FDBC00C
:1001E000E22FE33649F40E942F02E889F989A481BD
:1001F000AA930E943502CEC0E33741F40E942F0239
:100200000E943B020E94F9011E2F0AC0E03761F4F0
:100210000E942F020E943B020E9405021E2F0860CE
:1002200002600F7730E034C0E43611F0E93611F4A3
:10023000046002C0E53731F4E4E5F0E0EE83FF83CB
:1002400015E00CC0E83511F4086003C0E83709F088
:10025000A1C0EEE5F0E0EE83FF8314E002FF14C0DE
:100260000E942F020E944502AB85AA233AF4EA8538
:10027000FB850E945102EA87FB874DE2403011F076
:100280001F5F01C00B7F04C00E942F020E94450225
:1002900000FD11C0151778F407FF08C002FF04C065
:1002A0000B7F242F115001C020E301C020E20E94E7
:1002B00028025150EFCF312F01FF17C03030A1F08D
:1002C00003FF06C0EE81FF812591EE83FF8305C009
:1002D000AE81BF812D91AE83BF830E942802503032
:1002E00009F051503150EACF4BC020E3EE81FF813D
:1002F0000E945902E887F987EE81FF813296EE83EA
:10030000FF83E885F985AA85BB85AE17BF0750F046
:100310002F5FA885B985EA85FB85EA1BFB0BEA8779
:10032000FB87EFCF2A3328F003FF02C0295F01C00B
:10033000295D04FD1AC0213320F4A885B9851197E1
:1003400009F409C0531710F000FF01C013C020E2E8
:1003500007FF0BC020E3006102FF07C00B7F4A9339
:100360000E943502503009F051500E94280250304E
:1003700009F051503150A885B985129708F0B5CFD2
:1003800000FF08C0503031F05150E0E2EA930E9483
:100390003502F8CF10E0E0CEAC85BD850E94550255
:1003A0000E94690264960895FF92F82E26971A9388
:1003B0000A93DE0114960E944D028D01E0E0EC8369
:1003C000ED83EE83EF83DE0118960E944D020E94BA
:1003D0005502FA93EA931A930A93E3E9F0E0FA9349
:1003E000EA93DE011896ACDE198108812896FF9009
:1003F0000895BA93AA93A991B991EE27FF276D9119
:10040000662311F03196FBCF0895BA93AA93AA27D9
:10041000BB27E991F9910590002011F01196FBCFCF
:10042000FD010895FA93EA9380E00E94D401229698
:100430000895EEE6F0E0FA93EA930895FF27662721
:1004400077270E945D0284E00E94D40126960895D9
:100450002A93AD85BE85EF85F88909950895E889C9
:10046000F9893497E88BF98B0895AD85BE85EF85C2
:10047000F88909950895A889B98914960E945502AA
:10048000EE83FF83AE81BF810895A889B989149650
:100490000E945502EA87FB8708950024AF0DB01D26
:1004A0000895F195E195F0400895ED91FC91119733
:1004B00008950590F491E02D08957A936A93FA9344
:1004C000EA9308955A934A933A932A931A930A9374
:1004D00008955D814C813B812A81198108810895AD
:00000001FF
