:0E0000000C9448000C9400000C9400000C942A
:10000E0000000C9400000C9400000C9400000C9462
:10001E0000000C9400000C9400000C9400000C9452
:10002E0000000C9400000C9475000C9400000C94CD
:10003E0000000C9400000C9400000C9400000C9432
:10004E0000000C9400001027E80364000A00010071
:10005E000010000110000100000000000000000070
:10006E007EFF06000000000000EF7EFF060000008D
:10007E00000000EF0D0A257800000800040066005D
:10008E000000F894EE27ECBBF1E0FBBFEBBFE5BF41
:10009E008DE0A2E0BB27ED938A95E9F780E098E02A
:1000AE00A0E6ED930197E9F7E8E8F0E085919591E8
:1000BE00009761F0A591B59105901590BF01F001E3
:1000CE0005900D920197E1F7FB01F0CFEFE5EDBF43
:1000DE00E8E0EEBFC0E6D2E00C94A300EA93FA93F8
:1000EE00EFB7EA931A930A931BB10CB1E12FEC719F
:1000FE0061F4E82DF0E0E05AFD4F00838394E0E2D6
:10010E00E81519F48824E1E0AE2E09911991E991D0
:10011E00EFBFF991E9911895E0E0EABBEFEFEBBB89
:10012E000895E0E0EBB9E8E9EAB9E6E8E0BDE0E021
:10013E00E0BDE3E3E9B90895E9B3E095EF731E2F4F
:10014E00F0DFEADF7894E2E8F0E0FA93EA93E9B3BD
:10015E000E944002E2E8F0E0FA93EA93E12F0E9457
:10016E004002F1CFFFCFAA935D9BFECFE881ECB9A1
:10017E0021960895BA93AA93AA81F5DFA881B98131
:10018E00ED91FD913196FE93EE9323960895BA93D9
:10019E00AA9326970E94910210E0AC85BD85E0E0FF
:1001AE00F0E0ED93FC93EA89FB893196EA8BFB8BA9
:1001BE003197E4912E2FE03009F415C1E12FE03094
:1001CE0039F4253211F411E002C00E944D020AC129
:1001DE00E130A9F4253219F40E944D0202C112E059
:1001EE0040E000E02D3211F401E0FCC02B3211F49E
:1001FE004BE2F8C0203211F440E2F4C002C0E2300B
:10020E0039F450E013E0203311F40068EBC003C062
:10021E00E33009F0E7C0203310F02A3308F007C0AE
:10022E00AAE05A9F502DE22FE0535E0FDBC0E22F63
:10023E00E33649F40E945402E889F989A481AA930D
:10024E000E945A02CEC0E33741F40E9454020E942B
:10025E0060020E9427021E2F0AC0E03761F40E943E
:10026E0054020E9460020E9433021E2F0860026038
:10027E000F7730E034C0E43611F0E93611F4046043
:10028E0002C0E53731F4E4E5F0E0EE83FF8315E0DC
:10029E000CC0E83511F4086003C0E83709F0A1C0BE
:1002AE00EEE5F0E0EE83FF8314E002FF14C00E943F
:1002BE0054020E946A02AB85AA233AF4EA85FB85B2
:1002CE000E948002EA87FB874DE2403011F01F5FEB
:1002DE0001C00B7F04C00E9454020E946A0200FDFE
:1002EE0011C0151778F407FF08C002FF04C00B7F7A
:1002FE00242F115001C020E301C020E20E944D02C4
:10030E005150EFCF312F01FF17C03030A1F003FF56
:10031E0006C0EE81FF812591EE83FF8305C0AE817D
:10032E00BF812D91AE83BF830E944D02503009F0E4
:10033E0051503150EACF4BC020E3EE81FF810E9435
:10034E008802E887F987EE81FF813296EE83FF837C
:10035E00E885F985AA85BB85AE17BF0750F02F5FDC
:10036E00A885B985EA85FB85EA1BFB0BEA87FB8727
:10037E00EFCF2A3328F003FF02C0295F01C0295DA9
:10038E0004FD1AC0213320F4A885B985119709F40C
:10039E0009C0531710F000FF01C013C020E207FF81
:1003AE000BC020E3006102FF07C00B7F4A930E943F
:1003BE005A02503009F051500E944D02503009F04F
:1003CE0051503150A885B985129708F0B5CF00FF6E
:1003DE0008C0503031F05150E0E2EA930E945A02C8
:1003EE00F8CF10E0E0CEAC85BD850E9484020E945D
:1003FE00980264960895FF92F82E26971A930A9300
:10040E00DE0114960E947C028D01E0E0EC83ED8308
:10041E00EE83EF83DE0118960E947C020E94840216
:10042E00FA93EA931A930A93E1ECF0E0FA93EA93C3
:10043E00DE011896ACDE198108812896FF9008958A
:10044E00BA93AA93A991B991EE27FF276D916623CE
:10045E0011F03196FBCF0895BA93AA93AA27BB2722
:10046E00E991F9910590002011F01196FBCFFD0155
:10047E000895FF27662777270E948C0284E00E944A
:10048E0002022696A0EABFE00C9472022A93AD8572
:10049E00BE85EF85F88909950895E889F98934971D
:1004AE00E88BF98B0895AD85BE85EF85F8890995A2
:1004BE000895A889B98914960E948402EE83FF8359
:1004CE00AE81BF810895A889B98914960E948402CD
:1004DE00EA87FB870895109639F080ED97E0019733
:1004EE00F1F7A8951197C9F708950024AF0DB01D27
:1004FE000895F195E195F0400895ED91FC911197D5
:10050E0008950590F491E02D08957A936A93FA93E5
:10051E00EA9308955A934A933A932A931A930A9315
:10052E0008955D814C813B812A811981088108954E
:00000001FF
