S00C0000746573742E7372656358
S11300000C942A000C9434000C9434000C943400A6
S11300100C9434000C9434000C9434000C9434008C
S11300200C9434000C9434000C9434000C9434007C
S11300300C9434000C9434000C9434000C9434006C
S11300400C9434000C9434000C9434000C9434005C
S11300500C94340011241FBECFE5D8E0DEBFCDBF21
S11300600E9436000C9444000C9400008FEF87BB70
S11300708FE08ABB80E091E088BB9BBB8F5F8630BA
S10F0080D9F780E090E00895F894FFCFD9
S9030000FC
