:0A0000000C9438000C9400000C94DE
:10000A0000000C9400000C9400000C9400000C9466
:10001A0000000C9400000C9400000C9400000C9456
:10002A0000000C9400000C9400000C9453000C94F3
:10003A0000000C9400000C9400000C9400000C9436
:10004A0000000C9400000C9400001027E8036400E0
:10005A000A00010000100001100001007EFF0600E6
:10006A000000000000EFF894EE27ECBBF1E0FBBFC4
:10007A00EBBFE5BF8DE0A2E0BB27ED938A95E9F7D8
:10008A0080E098E0A0E6ED930197E9F7EFE5EDBF90
:10009A00E8E0EEBFC0E6D2E00C94A2001A930A93FD
:1000AA001BB10CB1099119911895BA93AA932A9781
:1000BA008AE0A0E0B0E0E6E6F0E00E94D6000E9406
:1000CA00CC0010E0E889F0E0EB5FFE4FAE85BF851B
:1000DA00EA0FFB1FAFEFBFEF0E94C500EA1BFB0B45
:1000EA0031969F01E889EF83EE85FF850E94C00063
:1000FA00E987EE85EA87F9010E94C000EB87E22FC3
:10010A00EC87E12F1A3050F4E12FF0E0DE0114966B
:10011A00AE0FBF1FAC911ED01F5FF4CF0E94D1005B
:10012A0061960895E0E0EBB9E8E9EAB9E6E8E0BDEE
:10013A00E0E0E0BDE3E3E9B90895F4DF7894A8E8E4
:10014A00B3E10E94B600E3E0EA93A1E0B0E0ADDFDC
:10015A00FFCFFFCFAA935D9BFECFE881ECB9219632
:10016A000895109639F080ED97E00197F1F7A89578
:10017A001197C9F70895EF2FFF27E7FDFFEF0895BD
:10018A001B2EBF2FF12D1A2EAE2FE12D08953A9373
:10019A002A931A930A9308953B812A811981088127
:1001AA000895AC0FBD1F05900D928A95E1F7089549
:00000001FF
